S00E0000752D626F6F742E73726563C0
S3152400100000000220FD130024B9160024A116002492
S31524001010A7160024AD160024B3160024B9160024FE
S31524001020B9160024B9160024B9160024B9160024CA
S31524001030B9160024B9160024B9160024B9160024BA
S31524001040B9160024B9160024B9160024B9160024AA
S31524001050B9160024B9160024B9160024B91600249A
S315240013F0B9160024B9160024B916002400F060B9E1
S30724001400F74683
S31524001402FFFFFFFFFFFFFFFFFFFFFFFFFFFFFFFFC0
S31324001412FFFFFFFFFFFFFFFFFFFFFFFFFFFFB0
S3152400142008B500F0A2FC00F089F800F0EBF800F013
S315240014301FF900F0F5F8002008BD0000064BDA6815
S31524001440064B02F4E0621343BFF35F8F4FF0E022B2
S31524001450C2F80C3D704700BF00ED00E00400FA0519
S315240014604FF0E023D3F8842D88B922F00202C3F882
S31524001470842DBFF34F8F4FF0E023D3F8803DBFF385
S315240014805F8F012003F0070302339840704742F030
S315240014900202ECE7154B023853F8201030B511B38D
S315240014A04FF0E023D3F8842D22F00202C3F8842DD2
S315240014B0BFF34F8FD3F8803DBFF35F8FC3F3C900CB
S315240014C0C3F34E3302465D0145EA8274BFF35F8F50
S315240014D0013A0C60F8D2013BF4D2BFF34F8FBFF32D
S315240014E06F8F002030BD6FF01500FBE7ACD10424CC
S315240014F04FF0E023D3F8140DBFF35F8FC0F3004001
S315240015007047000008B5FFF7F3FFA0B90220FFF7E4
S31524001510C1FF20B1BDE80840074848F038BE4FF067
S31524001520E022D2F8143D43F48033C2F8143DBFF3CD
S315240015304F8FBFF36F8F08BD7A30052408B5FFF7A8
S31524001540D7FFA0B10520FFF7A5FF20B1BDE80840CD
S31524001550074848F01CBE4FF0E022D2F8143D23F48D
S315240015608033C2F8143DBFF34F8FBFF36F8F08BD8E
S315240015706030052438B500240546091A2046FFF7AD
S315240015806FFF43422B4022464FF0E025BFF35F8F87
S31524001590091A64F10004884272EB040CC5F85C3F16
S315240015A00344F3DBBFF34F8FBFF36F8F38BD38B5DA
S315240015B000240546091A2046FFF752FF43422B40D2
S315240015C022464FF0E025BFF35F8F091A64F1000429
S315240015D0884272EB040CC5F8683F0344F3DBBFF37F
S315240015E04F8FBFF36F8F38BD08B50520FFF752FF25
S315240015F020B1BDE80840024848F0C9BD08BD00BF77
S315240016006030052408B50220FFF744FF20B1BDE869
S315240016100840024848F0BBBD08BD00BF47910524D9
S31524001620BFF35F8F4FF0E0230022C3F8502FBFF3A0
S315240016304F8FBFF36F8F70474FF0E023D3F8140D0D
S31524001640BFF35F8FC0F34040704708B5FFF7F4FF40
S3152400165068B9FFF7E5FF4FF0E022D2F8143D43F4D2
S315240016600033C2F8143DBFF34F8FBFF36F8F08BD0D
S3152400167008B5FFF7E1FF58B1BFF36F8F4FF0E022B3
S31524001680D2F8143D23F40033C2F8143DBFF36F8F10
S3152400169008BD08B5FFF7D9FFBDE80840FFF732BFFC
S315240016A0684600F083BB684600F08CBB684600F0B1
S315240016B095BB684600F09EBB684600F0A7BB0000B9
S315240016C01B4820F00700854608F0A6F98546814682
S315240016D008F0A7F94FF0000009F058FFD9F84800A0
S315240016E020F007008546D9F80090A9F1D8090FF211
S315240016F0140ED9F84C0086444EF0010ED9F8380061
S3152400170000F0A6B900F09EF9FFF77AFE09480A4BC5
S315240017104FF000011A1A00F013F809F0FCFE09F044
S31524001720FBFE4846D9F83810DFF810E07047000071
S3152400173000000220BCB90624DC240724B9B70024FF
S3152400174010F0030384463DD141EA012141EA0141D7
S315240017500B46102A1FDB2DE9004188468E46403A67
S31524001760A1BFACE80A41ACE80A41ACE80A41ACE8BE
S315240017700A41F4DC08BFBDE8008112F0200F1CBF2B
S31524001780ACE80A41ACE80A4112F0100F18BFACE8E5
S315240017900A41BDE8004112F0080F18BFACE80A0060
S315240017A012F0040F18BF4CF8041B12F0020F1CBFD2
S315240017B00CF8011B0CF8011B12F0010F18BF0CF8D2
S315240017C0011B7047043AF0DB022BB8BF0CF8011B4F
S315240017D0D8BF0CF8011B0CF8011B1A44B4E700BF50
S315240017E0884208BF70472DE91140043A3ADB10F0CD
S315240017F0030C4BD111F0030C62D11C3A2DE9E00104
S3152400180005DBB1E8F851203AA0E8F851F9DA12F0EC
S315240018101C0CCCF1200C18BFE74421E0AFF3008068
S3152400182051F8043B51F8044B51F8045B51F8046B0E
S3152400183051F8047B51F8048B51F804EBE74400BFBC
S31524001840AFF3008040F8043B40F8044B40F8045BB7
S3152400185040F8046B40F8047B40F8048B40F804EB12
S31524001860BDE8E001D20718BF11F8013B24BF11F8E7
S31524001870014B11F801CB18BF00F8013B24BF00F837
S31524001880014B00F801CBBDE811407047CCF1040CA4
S31524001890BCF1020FC8BF11F8013BA8BF11F8014BD8
S315240018A011F801EBC8BF00F8013BA8BF00F8014BB3
S315240018B0B2EB0C0200F801EBD4DB11F0030C9CD044
S315240018C021F00301BCF1020F51F804EB3ED07BDC7E
S315240018D01C3A2ADB2DE9E003F0C94FEA1E23203AFD
S315240018E0B1E8005343EA04634FEA142444EA056446
S315240018F04FEA152545EA06654FEA162646EA07669F
S315240019004FEA172747EA08674FEA182848EA09687A
S315240019104FEA192949EA0C694FEA1C2C4CEA0E6C49
S31524001920A0E8F813D8DABDE8E00312F01C0C0AD0BC
S315240019304FEA1E2351F804EBBCF1040C43EA0E6370
S3152400194040F8043BF4DCA1F103018BE71C3A2ADBC3
S315240019502DE9E003F0C94FEA1E43203AB1E80053CB
S3152400196043EA04434FEA144444EA05444FEA15453E
S3152400197045EA06454FEA164646EA07464FEA17471A
S3152400198047EA08474FEA184848EA09484FEA1949F6
S3152400199049EA0C494FEA1C4C4CEA0E4CA0E8F813D1
S315240019A0D8DABDE8E00312F01C0C0AD04FEA1E4335
S315240019B051F804EBBCF1040C43EA0E4340F8043B13
S315240019C0F4DCA1F102014DE71C3A2ADB2DE9E00300
S315240019D0F0C94FEA1E63203AB1E8005343EA0423D0
S315240019E04FEA146444EA05244FEA156545EA0625B8
S315240019F04FEA166646EA07264FEA176747EA082794
S31524001A004FEA186848EA09284FEA196949EA0C296D
S31524001A104FEA1C6C4CEA0E2CA0E8F813D8DABDE881
S31524001A20E00312F01C0C0AD04FEA1E6351F804EBB3
S31524001A30BCF1040C43EA0E2340F8043BF4DCA1F188
S31524001A4001010FE7D9F838000D498860704700BFB7
S31524001A500C49441A13D00C4AB1E8000CA0E8000C37
S31524001A609142F9D3094A0A4B03CA01F0FF01172907
S31524001A7003D120440168214401609A42F4D370477B
S31524001A8000ED00E000100024BCB90624BCB90624ED
S31524001A90AC8207240346084643F00103114618473F
S31524001AA01FB50023D9F80020916CD26CCDE9001320
S31524001AB0CDE902236946012302AA0AF06DFD05B089
S31524001AC05DF804FBD9F800206946D26CA1F5805153
S31524001AD08AB1D9F80020926C8A420CD8D9F8002011
S31524001AE0D9F80030926CDB6C1A44531E994202D802
S31524001AF0521A46F0D5BE70477047000073B5D9F820
S31524001B00003005461B6CD0F894601C480C460193A3
S31524001B1007F0C6FE48B1102101AA48F0DFFB0028D1
S31524001B2026DB0199164848F032FB0F2007F083FF85
S31524001B30AB2007F080FFFFF7DFFF124B124904F4B6
S31524001B400074002C08BF1946104848F020FB4FF4B7
S31524001B50C06013F00FF8FFF763FCD5F8A4304BB13F
S31524001B60D5F8A02024B92046019946F001039847C8
S31524001B7002B070BDD9F800305A6CF3E7CE2805249C
S31524001B80D5280524A6550524B7280524FA2805248E
S31524001B9070470000F8B50546444807F081FED5F89D
S31524001BA0A4204AB128460DF027F900286CD04048D5
S31524001BB048F0EDFA46F03EFD0526D9F800303D4CB6
S31524001BC05B6CDFF8F4C02360C3E9006C23689A6079
S31524001BD0DA601A611A6803EB82032360D9F80020BD
S31524001BE0C0B1064610F8012B202AFAD092B1334A06
S31524001BF030465A6047F068FB23680D308008186029
S31524001C0020683146083047F0FFFA23681A6803EB48
S31524001C108203236000F0BFF9032204272368284E99
S31524001C20C3E900262368274E1968986003EB8100D0
S31524001C302060D9F80020466043F821702368916C0F
S31524001C401868D960D26C03EB80069A60D5F8A81080
S31524001C502660D1B1D5F8AC20BAB14D462D681A4DBF
S31524001C60756043F820702368521ADA601A689960FE
S31524001C7003EB820323600F48FFF78AFF4B460022BB
S31524001C801B6823685A601A60F8BDD5F89810002995
S31524001C90F1D0D5F89C20002AEDD04D462D680A4D6A
S31524001CA07560042543F82050DDE700BFD44505249C
S31524001CB013290524BCB906240100415409004154C2
S31524001CC0070041540200415405004254F8B510F06F
S31524001CD0C00504461E4618D110F4807704D0184651
S31524001CE0FFF758FF2846F8BD10F4C06505D0014615
S31524001CF01846FFF703FF3D46F4E71846FFF74AFF69
S31524001D0021463046FFF7FAFEECE74FF0FF35E9E7C8
S31524001D1010B50446D0F8A00060B108493EF039FD5C
S31524001D20002807DDD4F8A000FFF7BAFE10B1044856
S31524001D300BF074FEBDE81040FFF772BB332905246F
S31524001D403B290524D0F89430D0F8A0001847D9F8B8
S31524001D5048200020C9F84420D9F84820103AC9F868
S31524001D6048207047002070477047002070470000C5
S31524001D7013B50446C36942698169074848F007FADE
S31524001D802368E26801936368216900930348A36882
S31524001D9048F0FDF902B010BDB66A0524E06A0524B0
S31524001DA008B5014847F01FFD7A230524044608B5E3
S31524001DB0034848F0ECF92046FFF7DAFFFFF7F0FF77
S31524001DC03E500524044608B5034848F0E0F9204669
S31524001DD0FFF7CEFFFFF7E4FFA1580524044608B514
S31524001DE0034848F0D4F92046FFF7C2FFFFF7D8FF8F
S31524001DF05F460524044608B5034848F0C8F920463A
S31524001E00FFF7B6FFFFF7CCFFEC690524044608B5B7
S31524001E10034848F0BCF92046FFF7AAFFFFF7C0FFA6
S31524001E20B25105247047000008B508480BF0F6FDAA
S31524001E304CF2503047F084FBFFF797FFFFF7F2FF91
S31524001E400020FFF7FBFA002008BD00BFBF61052470
S31524001E500144FFF7ACBB0020704700001FB50D49B5
S31524001E6001AA11F093FE044630B101460A4848F00F
S31524001E708EF9204604B010BD01A811F03BFF041EC4
S31524001E8003DA2146054848F082F901A811F094FEA8
S31524001E90EFE700BF63BE05246EBE052495BE052468
S31524001EA00023D3F8089070471FB5002103AB009395
S31524001EB0084642F20343074A19F0FAFE30B10022DB
S31524001EC003461146044848F062F9012005B05DF83E
S31524001ED004FB00BF00EA3206A622052413B500211E
S31524001EE06A463D2012F02FFF00283FD14220204988
S31524001EF018F04AF808B110302CD11E4C422018F0A4
S31524001F0071F8E368422043F01003E36018F036F9D1
S31524001F10E368012823F01003E3601BD1009B1649D4
S31524001F20586913F090FC1549044613F0BCFC134978
S31524001F3002460190204613F03AFD0223837010488E
S31524001F4013F005FD431C05D00E4901AA13F01DFD0F
S31524001F50042343606A460021009812F0F4FF28B94E
S31524001F6045F0CAFB002818BF6FF0150002B010BD5B
S31524001F70916A0524001002589A6A0524A16A052448
S31524001F8033290524B26A052408B545F0D9FB002077
S31524001F9008BD002070470020704700001FB50022AE
S31524001FA03449354805F062FF0246002837D03349C4
S31524001FB0334848F0ECF81020324917F0E5FF0028A2
S31524001FC04ED010304CD010212F4848F0E0F8002095
S31524001FD001232E4AC0F80890C0E900232C4BC36085
S31524001FE02C4B03612C4B43612C4B83612C4BC361DB
S31524001FF02C4B03622C4B43622C4B83622C4BC362C7
S315240020002C4B03632C4B43632C4B83632C4BC363B2
S315240020102C4B03642C4B436405B05DF804FB55201C
S3152400202003A913F00AF8034618B1024613492748B0
S31524002030BFE702460F490090039817F0C3F903A996
S31524002040312012F0EBFF039816F0CFFD034600284B
S31524002050B1D0039A094952681D4848F098F8AAE76E
S315240020600121102017F0D4FF0028B0D010211948E0
S31524002070ABE700BF000040D0B42505247008052432
S31524002080BB25052427260524302605240DB00DB0AE
S31524002090A11E0024DD7F002461880024AD8800244D
S315240020A0BDCB022461C7022401D3022471D20224A7
S315240020B099D002247DD50224A1980024D595002404
S315240020C06DA50224657E00246D7E0024D925052471
S315240020D0FF25052450260524D9F80010D9F8002018
S315240020E08B6C002003F580735364704710B5044647
S315240020F0012013F064FB78B11CB1062C0FD14FF4E8
S3152400210000044368BFF35F8F23F460031C43BFF3CB
S315240021105F8F4460002010BD6FF01200FBE76FF064
S315240021201500F8E7012A70B516461C4618DD10225C
S3152400213054F8040F002148F0A9F8054601460A4838
S3152400214048F025F82246711E2846FFF7A3FC041EF4
S315240021500146064818BF012448F019F8204670BDE8
S315240021604FF0FF34FAE700BF194F0524414F0524E9
S315240021702DE9F04502F1FF38B8F1000F06460F4667
S3152400218015461C4687B003F1040A30DD1022586830
S3152400219005A948F07BF8059B1A7842B33A2A26D03B
S315240021A0232A24D00922174960680EF0F1FEAA1EBC
S315240021B004F1080360B1C4681349012C0DD0E0076B
S315240021C00CD4D1F8C000844208DC104847F0DFFF65
S315240021D04FF0FF3007B0BDE8F085072400200191B9
S315240021E0029000943946304609F0EAFBF2E70123CF
S315240021F00293054B4246019340F21F7300935346C4
S31524002200F0E700BF40840624D0C006241E410524DE
S3152400221010B50C46034807F043FB2146BDE81040A1
S315240022200EF022BEE92A052410B5044601461048BC
S3152400223047F0ADFF20460CF065FC022814D10D486A
S315240022400BF0ECFB20460DF08DFE20B90A480BF06E
S31524002250E5FB012010BD20460DF042FB20460DF083
S31524002260EBFD18B90548F2E70548F0E70020F1E749
S31524002270E28D0524038E0524178E05242E8E05242F
S31524002280468E0524012AF8B515461F4605DC0C4B57
S315240022901868BDE8F840FFF7C7BF002601241022BE
S315240022A0002157F8240047F0F1FFFFF7BDFF013462
S315240022B0002818BF0126A542F1D13046F8BD00BF3B
S315240022C0C09D062473B505460D480E4607F0E8FA68
S315240022D010B9002002B070BD0A4946F0CCFF04466E
S315240022E00028F6D1084BCDE900601968074847F065
S315240022F04EFF6B46012221462846FFF739FFE9E7C0
S31524002300262C0524302C0524C09D0624342C052493
S3152400231037B50546064C0748CDE90023241A0B4653
S315240023200549A4102A4661430EF090FE03B030BD41
S3152400233054AB0624B0A20624B76DDBB600B5B3B001
S31524002340C8226946002045F0A7FF47F020FF05482C
S315240023500BF064FB04480BF061FB002033B05DF8FE
S3152400236004FB00BFF96905243A6A0524F7B5044637
S3152400237028480D4627F09EFE074620460CF0C2FB51
S31524002380022844D120460DF0EDFD18B922480BF061
S3152400239045FB1AE07DB9214920463EF0FAF9011E93
S315240023A001DA1F48F3E72B4620461E4A3EF041F940
S315240023B005460028F5D0294620460CF0DFFF061EE8
S315240023C005DA2946184847F0E2FE01201DE00622D8
S315240023D0314620460DF0A6FD08B91448D7E737B193
S315240023E0314620460DF000FD08B91148CFE76A466C
S315240023F03146204601AB0DF02FF8024608B10D48B0
S31524002400C5E7DDE900010EF036FD03B0F0BD0A484C
S31524002410BDE700BFFAB6052401B7052417B705247E
S315240024201FB705244AEF05243AB7052458B70524CF
S315240024306BB705247AB705249FB7052413B51C4624
S315240024400023012A01930CDCA3F13F530093009946
S315240024500C4847F09CFEDDE90001FFF787FF02B038
S3152400246010BD09496A460968606801AB0CF059FF3A
S3152400247001460028EBD11022606847F007FF009040
S31524002480E5E700BFDA610524C09D06240B46082231
S315240024900146014847F07BBEAEA4052410B5D9F801
S315240024A000402248216CFFF7F1FF616C2048FFF7BA
S315240024B0EDFFE36C5BB100211E48FFF7E7FFA16C3B
S315240024C01D48FFF7E3FFE16C1C48FFF7DFFFD9F84F
S315240024D008101B4847F05BFE1A48D9F8C810FFF7C6
S315240024E0D5FF1948D9F83810FFF7D0FF1748D9F87F
S315240024F04C10FFF7CBFF1648D9F84410FFF7C6FF58
S315240025001448D9F84810FFF7C1FF4FF47062D9F880
S31524002510A810114847F03BFED9F8682022B1D9F813
S3152400252068100E48FFF7B2FF002010BD2E40052488
S315240025303A400524464005245040052459400524A4
S315240025406140052477400524804005248A400524DB
S31524002550944005249B400524A5400524C340052416
S31524002560012A2DE9F04105460E4611DD571E0A497A
S315240025700222586803F104080EF00AFD40B1C4682B
S3152400258043463A4631462846A446BDE8F0416047CC
S315240025904FF0FF30BDE8F081E8850624032A38B5DC
S315240025A01C4616D100225868114647F06FFE0022B9
S315240025B005461146A06847F069FE044601462846AA
S315240025C014F0D6F92A462146034847F0E0FD0020B8
S315240025D038BD4FF0FF30FBE70725052400B589B049
S315240025E003A814F0F5F9079B03A90193069B044855
S315240025F000930EC947F0CBFD002009B05DF804FB1B
S315240026003725052410B50B49044646F034FE68B137
S315240026102046094946F02FFE50B12046074946F088
S315240026202AFE003818BF0120404210BD0220FCE7D4
S315240026300120FAE7C2A10524A18A05249040052495
S31524002640012A10B515D0022A1ED15868FFF7DAFFE1
S315240026500128044606D0022808D028B9FFF708F82E
S31524002660204610BDFEF7F1FF0024F9E7FEF7D8FF58
S31524002670FAE7FEF7E1FF064A0649002818BF114685
S31524002680054847F084FDEFE74FF0FF34E8E700BF45
S31524002690890706244A5005244E500524012A10B5DC
S315240026A015D0022A1ED15868FFF7ACFF012804462C
S315240026B006D0022808D028B9FEF740FF204610BDD0
S315240026C0FEF720FF0024F9E7FEF78EFFFAE7FEF770
S315240026D00FFF064A0649002818BF1146054847F049
S315240026E056FDEFE74FF0FF34E8E700BF89070624DD
S315240026F04A500524E7460524012A2DE9F0410546DA
S315240027000E4611DD571E0A490122586803F10408B2
S315240027100EF03EFC40B1C46843463A46314628464C
S31524002720A446BDE8F04160474FF0FF30BDE8F08194
S31524002730408606242DE9FF411420694612F093FAB7
S31524002740054650B9009B194F9C68194E303C009B96
S3152400275004F1300208339A4203D1284604B0BDE876
S31524002760F0810C22002101A8FEF7EAFF204611F091
S31524002770E5FE30B13046616847F009FD246B303CF4
S31524002780E5E7204601A911F0BFF90028F2D101A8F6
S31524002790D4F8048011F018FA41460246384647F028
S315240027A0F6FC01A811F008FAE8E700BFE7B605240D
S315240027B0D6B6052408B5FFF7BDFF002804DA01467E
S315240027C0024847F0E4FC012008BD00BF6A46052400
S315240027D02DE9F34D0EF076FA05461C480BF01EF94A
S315240027E0DFF86C802C68DFF86CA0AC4203D10020A3
S315240027F002B0BDE8F08D54F8442C174E12F0010FA8
S3152400280014BF49232E2312F0020F14BF4F212E2169
S3152400281040460091114FA4F13C0147F0B8FCA4F1C5
S31524002820440B06F10C0356F8042B5A4504D15046A2
S31524002830396847F0ACFC0A4BB34207F10407F2D1DE
S315240028400A200BF0FCF82468CFE700BFBB4605241A
S31524002850D7460524472F052468D806241C9E06241B
S3152400286074D8062400207047012AF8B50E4614466B
S315240028701D4615DD032258680B490EF089FBA21E5E
S3152400288005F10803044658B14168914208DB3146F4
S31524002890C768B84701462046BDE8F8400EF0C0BEDA
S315240028A04FF0FF30F8BD00BF5C86062408B512F051
S315240028B065FE002008BD08B512F048FE002008BDBC
S315240028C02DE9F04D4FF0010A16461F465546DFF80E
S315240028D06C80B54208DBBAF1000F02D00A200BF057
S315240028E0AEF80020BDE8F08D012D57F825B002D0B2
S315240028F020200BF0A4F84146584646F05BFD0446DA
S31524002900B8B14FF0000A584684F800A00BF086F8B8
S31524002910A3465C230BF8023B4146584646F04AFD43
S3152400292004460028EFD158460BF078F8A246013524
S31524002930CFE758460BF072F8F9E700BF574705244E
S315240029402DE9F84503790446022B35D100264FF0AC
S315240029503808076A0744238F08FB06759E4209DB5D
S31524002960638AA069152B03D1236BDB0700D5006886
S31524002970BDE8F885D5E908231343D5F818A004D073
S31524002980A96850462144FEF72BFFD5E90801D5E96D
S315240029900A23994208BF904204D0121A00215044B7
S315240029A0FEF7CEFEA96A2AF01F001F3121F01F016F
S315240029B0FFF74EFA0136CEE70026C7690744A38DF2
S315240029C007EB4615B34201DCA069D1E72A69D5F89D
S315240029D00C8022B1696840462144FEF701FF28692C
S315240029E06A69904204D0121A00214044FEF7A8FED8
S315240029F0696928F01F001F3121F01F01FFF728FA0B
S31524002A000136DCE708B5084B026801469A4204D031
S31524002A10064847F0BCFB002008BD038A022B01D0E0
S31524002A200348F6E70120F7E77F454C4676650624FA
S31524002A309A6506242DE9F34D924661481C4606F014
S31524002A402FFF0AF1FF36002E804604F1040743DDEA
S31524002A5065682B782D2B3DD16B78702B01D0732B89
S31524002A6038D1AAF10206002E04F1080735DD10211B
S31524002A70386801AA47F032FC16302ED0013E0437BE
S31524002A800198FFF7BFFF002800F09880019C45B30A
S31524002A906B78702B25D12046FFF752FF0190B8F1B1
S31524002AA0000F40F082800199464847F070FB42F2BD
S31524002AB0107046F045FD39463046019B9847041E62
S31524002AC00146414818BF012447F061FB204602B065
S31524002AD0BDE8F08D0025CAE700253C4B1B68019311
S31524002AE0CEE723794FF0000A022B28D04FF0280B8B
S31524002AF0238E9A4535DBA3692CE0A56A254405EB8C
S31524002B008A15AB68990718D5D5E90403034314D06D
S31524002B10D5E90823134310D06B68082B1CD1002158
S31524002B20FEF70EFE29692B6A21F01F00C9181F31F2
S31524002B3021F01F01091AFFF78BF90AF1010AA38F65
S31524002B409A45DADB628AA369152A03D1226BD20756
S31524002B5000D51B680193A2E7A9692144FEF740FE2C
S31524002B60E0E7256A25440BFB0A55AB689B0714D579
S31524002B70E86890B16A6982B16B68082B10D100218C
S31524002B80FEF7DEFDE9686B6921F01F0019441F3149
S31524002B9021F01F01091AFFF75BF90AF1010AA7E7D9
S31524002BA029692144FEF71CFEECE74046084946F015
S31524002BB062FB044600287FF476AF87E7012485E785
S31524002BC0262C0524CC400524F4400524C09D062447
S31524002BD01B410524F0B5012A16461C46A1B00EDC7D
S31524002BE06C4B1D686C480AF019FF6C4806F058FEB9
S31524002BF0E8B96B4847F0CBFA012021B0F0BD10228A
S31524002C000021586847F042FB022E0546EAD1654961
S31524002C10606846F030FB0028E4D1032049F022F80E
S31524002C200028E9DD2946604847F0B1FADAE71022A0
S31524002C30002147F02BFB06465C4806F031FE04468D
S31524002C40002867D15A4806F02BFE0446002800F0D7
S31524002C508F800146684646F0D7FA204646F034FB74
S31524002C600446544806F01CFE02460DEB0400002AD6
S31524002C7000F08280504947F07DFA04444F4806F01C
S31524002C800FFE0246B8B14E490DEB040047F072FA26
S31524002C9004444C4806F004FE0DEB040700286FD0CC
S31524002CA0484806F0FDFD3EF08BFC474902BA3846FB
S31524002CB047F060FA0444454806F0F2FD024628B17E
S31524002CC00DEB0400424947F055FA0444414806F006
S31524002CD0E7FD024628B10DEB04003F4947F04AFAC6
S31524002CE004443E4806F0DCFD024628B10DEB040000
S31524002CF03B4947F03FFA04443A4806F0D1FD0746DB
S31524002D0038B101460DEB040046F07EFA384646F00B
S31524002D10DBFA6C46204646F0D7FAFF2802462146BF
S31524002D2038BFFF223046FEF75BFD204646F0CCFA3C
S31524002D30FF28014638BFFF213046FFF789F832467F
S31524002D403146294847F023FA2846FFF75BFEE0B1CF
S31524002D502846FFF7F5FD05462946244847F017FA85
S31524002D60FEF7ECFB0020A84721480AF057FE43E76C
S31524002D70204847F00CFA74E71F4947F0FBF97CE733
S31524002D8038461E4947F0F6F994E71D480AF046FEF0
S31524002D90E2E700BFC09D0624D74405240545052443
S31524002DA00E4505249A4405249F440524D445052428
S31524002DB0394505246745052470450524874505249A
S31524002DC08E450524934505249B450524A2450524C3
S31524002DD0AB450524B1450524BB450524C145052439
S31524002DE0CA450524D1450524DD4505242446052464
S31524002DF0484605244145052479450524C59E0524D0
S31524002E00FE450524012A08B50ADD0A220021586850
S31524002E1047F03CFAC0F1FF2000F57F00FE3008BDE4
S31524002E200020F7E713B50124009428F091F902B0A5
S31524002E3010BD13B50124009428F0AAF902B010BDE0
S31524002E4013B50124009428F0A1FA02B010BD0000A5
S31524002E50F0B5012A1D46A3B005DC104847F097F9C2
S31524002E60002023B0F0BD0124A9686868009404AB4F
S31524002E7003AA0FF079F9061E0BDB039804A9476809
S31524002E8028F06CFE38B133463A466968044847F060
S31524002E907EF92046E5E728F0A7FEE2E76749052400
S31524002EA09249052470B50468054624B9154847F0A7
S31524002EB06EF9204670BD20463CF01EFA061E1FDA27
S31524002EC03CF0BAFB0146104847F061F90A3611D1A5
S31524002ED0616909BA012903D802220C4847F057F937
S31524002EE0A3691BBA112B05D961691122084809BAAD
S31524002EF047F04DF9074847F04AF900202860D9E7FA
S31524002F000120D7E7647B05248F7B0524AD7B05242C
S31524002F10C57B0524CEA1052403460846F9B15A18D3
S31524002F2012F8012C0AB10A2A07D10D4913F8012BEC
S31524002F307AB18A5C12F0B70208D1002070470128C2
S31524002F400DD01A78002AF8D00138EFE70028FBDCE8
S31524002F50F3E70028F3DC0CBF0120002070477047FC
S31524002F60DA1E05242DE9F84506460C46FFF7D4FF5C
S31524002F700546F0B12F480AF051FD00252E4FAC42EC
S31524002F8004DCBDE8F8452B480AF048BD002D02DDD7
S31524002F9038460AF043FD30460AF040FD304646F0F6
S31524002FA093F901350544304646F08EF9013006443E
S31524002FB0E5E7A30727D1402C06DD22463146BDE8A6
S31524002FC0F8451E4847F0E3B81D4847F0E0F8002CC2
S31524002FD0B8BF0334A410DFF86C80DFF86CA0671E3A
S31524002FE0A54204DB1948BDE8F84547F0D0B856F8A1
S31524002FF02510BD42B4BF42465246154809BA47F089
S31524003000C6F80135ECE7402CD7DC124847F0BFF868
S315240030100C4FDFF83480AC4201DC0F48E3E7621E34
S315240030209542B4BF3A464246715D0C4847F0AFF824
S315240030300135F0E75DA405245AA405245FA40524DC
S3152400304093CF0524C59E0524A6550524A8CF05247B
S315240030506FA4052478A4052439E505247AA4052437
S31524003060024B01461860024806F0DEBAC0BD0624AB
S31524003070AEB505242DE9F04D012A17461D4692B01A
S3152400308002DC4FF0FF3449E00222A249586846F098
S31524003090FDF8044600285DD1BE1E00F033859E4906
S315240030A0A86846F0E8F8002842D1FE1E24D04FF046
S315240030B001080C3510220021286847F0E7F8074656
S315240030C0069006A8FFF7EEFEE0B1B8F1000F32D065
S315240030D0069AC9F86820012E20D01022002168689B
S315240030E047F0D4F806994A6812BA904227D2014684
S315240030F08A4847F04CF811E00126D9F8683006933F
S31524003100069B0BB9012409E006A8FFF7CBFE00288D
S31524003110F8D03EB10699824847F039F8204612B0D5
S31524003120BDE8F08D31467F4806F0E2FB0146F2E722
S31524003130A0460835BEE73846FFF792FFCBE702469E
S3152400314008463CF0D1FC0028E8D03CF075FA01464C
S315240031507548E1E7754E33681BB975480AF05EFC7D
S31524003160D0E702227349686846F090F8044600289E
S3152400317039D1032F85DD01461022A86847F086F849
S3152400318030603046FFF78EFE0028BBD01022214641
S31524003190E86847F07BF8042F804610D133685B68D3
S315240031A01BBA1A46414630683CF09EFC0446B0B130
S315240031B03CF042FA01465C4846F0E9FFA2E71022B9
S315240031C02146286947F062F8326801465268034668
S315240031D012BA9042E5D2584846F0D9FF92E74046C3
S315240031E0FFF73EFF9AE702225449686846F04EF8F4
S315240031F0D8B9032F7FF745AFA9683068EC683DF04E
S31524003200C8FA011E04DA3CF017FA01464C48D3E703
S31524003210224630683CF040FC002801DB00247DE790
S315240032203CF00AFA01464748C6E768680378732BD8
S3152400323040F0D880032F7FF724AFA9683068D5F8EB
S315240032400CA03DF0A6FAB0F10008DCDB042F10D167
S3152400325000230493049B5246009341463A4B30681C
S315240032603CF09CFB0028D9DA3CF0E6F901463748C5
S31524003270A2E752464146306804AB3DF0DAF9049A97
S315240032800146B2F5806F02DD1146314894E710B14C
S315240032902D48FEF7A5FA00242B69049406931A7880
S315240032A005F1100B3C2AA7F1040757D101330693E5
S315240032B0254B069D29783E29CCD0A74201DC2548FA
S315240032C07AE721B901345BF824200692F1E700223B
S315240032D0284606A9039346F0D9FF2A78039B3F2A5A
S315240032E009BF069A00BA01320692049A18BF1860DA
S315240032F004320492069A0433521B002A04DC29461B
S31524003300154859E701320692069A11782029F9D0F0
S31524003310CFE700BF565D0524D6490524FB4905247D
S31524003320D9490524AEB505242A4A0524C0BD062458
S31524003330464A0524B64A0524B94A0524EC4A0524F6
S31524003340EF4A0524154B0524C0B90624954B0524BC
S31524003350334B05247A4B0524594B05245B2A2BD160
S31524003360013306939C4D9D4B069A12785D2A02D111
S3152400337011E00130069006980278202AF9D032B955
S3152400338001345BF824200692A742EDDC03E09A5C24
S3152400339012F0440F05D1069B19785D293FF45AAFE4
S315240033A08DE7102206A946F071FF049A8B4B013251
S315240033B005F8010B0492E7E7874D069845F084FF4C
S315240033C00699431C2846039345F01EFF039B049845
S315240033D05BF8042F01341844A7421D440490069236
S315240033E0EBDC37E7672B40F0B9800023042F0493E6
S315240033F07FF747AE052FD5F808A004D19AF80030F8
S31524003400732B7FF43EAE29693068D5F80C80D5F845
S3152400341014B03DF0BEF9041EFFF6F5AE9AF800305E
S315240034206E2B03D0732B49D1052F47D12146306803
S315240034303DF055FA21460690074606AA30683CF028
S315240034401FF89AF8003004466E2B30D11022002142
S31524003450686946F01BFF83464FF0FF357B1C069AAE
S31524003460BA421BDD93429AF8002008BF01356E2A22
S315240034700BD15D4509D12146002230683DF020F864
S315240034800146404606F0A6F8C8E62146306806AA54
S3152400349003933BF0F5FF041E039BE0DA9AF8003011
S315240034A0732B07D14046691C06F0B2F8B6E64FF0F6
S315240034B0FF3BD1E74A4846F06AFE23E630685A467F
S315240034C0214604AB3DF0B5F8049D06460DB94549A1
S315240034D0D7E700283CD0002D3ADD9AF80030762B29
S315240034E027D12946FFF718FD044608B13146C8E717
S315240034F0042D0AD132683C4912BA06A846F03AFE8F
S31524003500404606A906F066F808E6AA070FD1142D48
S315240035100DDC0746DFF8D4A006ABF25903EB4700CF
S315240035205146043746F026FEBD42F5DCE8E730482E
S31524003530C1E7612B06D102462E4906A846F01AFE9B
S3152400354006A99EE7732B7FF49CAD2A462649F4E709
S3152400355028463CF071F8014627482DE6702B22D0E8
S315240035606C2B40F0DC804FF00108022F1ED0032F75
S31524003570D5F808A01CD0ED68514630683DF009F90D
S31524003580B0F1000BFFF63FAE002D3FD030682A463F
S31524003590594606AB3DF04DF8069C064654B92A46D4
S315240035A051461648A5E54FF02008DEE7DFF850A07F
S315240035B00025E1E770B1002C0CDD2946114846F0C0
S315240035C0E6FD069911B13046FFF7CCFC0E4846F0CD
S315240035D0DEFD23E62046BCE7C0B90624DA1E052410
S315240035E0AF4B0524A6550524C64B05247C990524F2
S315240035F0CD4B0524E74B0524EC4B0524064C05242A
S31524003600198E0624404C0524CEA105242C46A34F0E
S31524003610A34D5946306804AA3BF0AEFE431E01462C
S31524003620082B77D801A252F823F000BF5136002484
S3152400363087360024A93600240737002415370024AA
S3152400364015370024153700241537002405310024A6
S315240036500022594630683CF033FFA04502460BDB76
S3152400366078B101788F4B002908BF1A46C4F120018E
S315240036708D48294446F08BFD01341F2C0FDD8B48E1
S3152400368019E78B4AF2E7013CA04508DBC4F1200187
S315240036908848294446F07BFD002C3FF4BFAD631CCB
S315240036A0DDF810B0B5D1B9E50C22594630683BF0A7
S315240036B049FE8168824609BA30683CF07DFEDAF814
S315240036C00430024618BA00280690FFF642AF08D105
S315240036D0A045E4DBC4F120012944774846F057FD90
S315240036E0DDE7A045DBDBC4F120012944734846F01D
S315240036F04EFD069919B10AF10C00FFF733FC704808
S3152400370046F045FDCBE7C4F120013846294446F06E
S315240037103EFDC4E7A045FFF6F5AC6A484CE5022217
S31524003720694945F0B3FDF0B9A96830683DF031F830
S31524003730011EFFF668AD032F30680ADDEA683CF007
S3152400374040F9041EBFF66AAD3BF076FF01465F489A
S31524003750E2E43CF0B0F9041EBFF660AD3BF06CFF2A
S3152400376001465B48D8E468680378682B68D1052F3E
S31524003770D6F8008018D1AB681B78672B7FF4C2ACCF
S315240037800026544F296957F8040B45F074FD044666
S3152400379018B101360A2EF5D1B4E458F82610E86893
S315240037A009BA05F041FFB9E4D8F800104A4809BA25
S315240037B0D8F8144046F0EBFC336848485A6824BAD3
S315240037C012BA114646F0E3FC33684548996809BAAB
S315240037D046F0DDFC33684348D96809BA46F0D7FC7D
S315240037E033684148196909BA46F0D1FC21463F4855
S315240037F046F0CDFC33683E48996909BA46F0C7FCC1
S31524003800012C15D933683B48D96909BA46F0BFFC5F
S31524003810022C0DD033683848196A09BA46F0B7FC29
S31524003820102C05D933683548596A09BA46F0AFFCD5
S3152400383030683CF0E7FD0146314846F0A8FCC5E671
S315240038400322304945F022FD044640B901461022A0
S31524003850A86846F01BFD336800BAD8615EE40222EC
S315240038602949686845F012FD044600284ED11022E5
S315240038700146A86846F086FD102280460F46E86871
S31524003880214646F07FFDCDE9000142463B4630689D
S3152400389008F048FF00EAE07440E400BF464C0524E3
S315240038A01B8E0624D44905240D4C0524154C0524C9
S315240038B0BD490524314C0524374C05243E4C0524AA
S315240038C03B4C0524534C052487F60524674C0524D4
S315240038D0824C052454E204249E4C0524AD4C052434
S315240038E0C44C0524DA4C0524F14C0524084D052442
S315240038F0164D05242D4D0524444D05245B4D0524E4
S31524003900724D0524894D0524BA2C052402228049AA
S31524003910686845F0BBFC0446002860D1AB681B7878
S31524003920702B29D130683CF06DFD0746794846F066
S315240039302EFC794846F02BFC2546DFF8E081BD4273
S31524003940BFF66CAC2946306806AB04AA3CF039FDB8
S31524003950041E05DA3BF070FE01467148FFF7DCBB16
S31524003960069B29460193079B40460093DDE90432D2
S3152400397046F00DFC0135E2E7612B1BD110220146EE
S31524003980E86846F0FFFC102280460F462869214647
S3152400399046F0F8FCCDE9000142463B4630683BF050
S315240039A07DFF041EBFF63AAC3BF046FE01465D4859
S315240039B0FFF7B2BB642B7FF464AB01461022E868A0
S315240039C046F064FC014630683BF093FF041EBFF6C4
S315240039D025AC3BF031FE01465348FFF79DBB03223D
S315240039E05249686845F052FC0446E8B9022F18D0BB
S315240039F0042F7FF446AB01461022A86846F046FC05
S31524003A00102207462146E86846F040FC0546306801
S31524003A1008F072FD2A463946306808F0D7FCFFF7CD
S31524003A207DBB05460746F2E741490322686845F00F
S31524003A302DFC014658BB3368002B3FF463AB022FA1
S31524003A4019D01022A86846F021FC069006A8FFF794
S31524003A5029FA00283FF456AB069A00213068C9F8A3
S31524003A6068200CF093FA014648B93BF0E5FD01467F
S31524003A703048FFF7A1BBD9F868300693E6E73068EB
S31524003A800DF00AF9041E18BF0124FFF747BB2A4983
S31524003A900222686845F0FAFB0146D8B9032F7FF461
S31524003AA0F0AA3368002B3FF42DAB1022A86846F009
S31524003AB0EDFB069006A8FFF7F5F900283FF422ABA4
S31524003AC00699306808F0BAFF044600283FF426AB6E
S31524003AD0FFF718BB02221949686845F0D7FB04464C
S31524003AE000287FF4CEAA022F0AD001461022A86805
S31524003AF046F0CCFB0146306808F0A4FEFFF70EBB67
S31524003B000146F8E70E4B1B680693FFF7F9BA00BF88
S31524003B1022FA05248D4D0524DC3E0524C74D0524B3
S31524003B20A84D0524E14D0524004E05247052052494
S31524003B30F9C205241F4E0524BBBB052462CF0524E8
S31524003B40C0BD06242DE9F8454FF0FF350024089F13
S31524003B5088423C6015601D6002D90020BDE8F885C6
S31524003B604FF6FF76DFF8ACC0DCF80850B542F4D047
S31524003B70DCF80C50DCF80060BCF804E035440EF1A7
S31524003B80FF3E013D0FFA8EFE0CF10C08BCF80460D2
S31524003B90A6420FDC1468002C2EDB1868002803DAF2
S31524003BA0A9421ED9C3F800E01B68126893421DDAA5
S31524003BB0194817E0A6450EBF2E46D8F8046006F12C
S31524003BC0FF36864209D3D8F800A08A4505D882450F
S31524003BD008BF14608E4208BF1C60013408F1040833
S31524003BE0D4E70E4809F01AFF0120B7E79B1A3A6872
S31524003BF0013313443B60B0E7DCF80C20824203D83F
S31524003C00A84201D20648EDE71B68002BA5DB054830
S31524003C10E8E700BFF0E306240D860524E2850524A3
S31524003C2036860524638605242DE9F34D88463A21F4
S31524003C30054617461E4645F03AFB044658B100236E
S31524003C400A22037001A9284646F020FB019BAB42B9
S31524003C5004D14FF0FF3002B0BDE8F08D93F800B0E8
S31524003C60BBF1000FF5D10128F3D14FF6FF73DFF82E
S31524003C7074A0DAF808209A42EBD001342D2120468C
S31524003C8045F015FB054608B105F801BB0A22204676
S31524003C9001A946F0FBFA019B8346A342D9D01B789F
S31524003CA0002BD6D1BAF804308342D2DDC5B10A221C
S31524003CB0284601A946F0EAFA019B0446AB42C8D03D
S31524003CC01B78002BC5D18345C3DCBAF80430834264
S31524003CD0BFDDC8F800A00120C7F800B03460BAE7F9
S31524003CE00446F6E7F0E30624012A08B508D10121A3
S31524003CF00A4846F04CFA0A4817F012FF002008BD7D
S31524003D0010220021586846F0C1FA0128EFD001217B
S31524003D10044846F03CFA0120F1E700BFE24E0524B0
S31524003D20F0E30624F04E05240021F8B50C46134A88
S31524003D30A2F10C05AB888B4217DD0CB100201BE0E9
S31524003D40013B8B4205BFEB682E6853689B190668B6
S31524003D50013B9E4206D81768BE4203D301249E42E5
S31524003D6038BF036001310432E4E7002CE6D1016850
S31524003D70034846F00CFA0120F8BD00BFFCE30624F4
S31524003D80A1880524F7B5074616460C46102201A934
S31524003D901D4646F07BFA019B3060BB421FD01F783C
S31524003DA0EFB924B123782B2B04BF01270134102229
S31524003DB0204601A946F06AFA019B2860A3420ED048
S31524003DC01B7863B917B9012003B0F0BD3368013BF2
S31524003DD0184428602846FFF7A7FF0028F3DD4FF094
S31524003DE0FF30F1E770B586B005AB009303AA04ABA8
S31524003DF0FFF7A8FE059B044683B1C0B1204606B052
S31524003E0070BD049D31462A460B4817F0D7FE60B98B
S31524003E10A91B0131094846F0BAF9EFE70028EDD18C
S31524003E20074809F0FBFD0124E8E70446E6E7039E7C
S31524003E30002EE6DA0146EDE7F0E306243A88052467
S31524003E404D88052470B51C46002386B0012A1546E4
S31524003E50CDE90433019303DC4FF0FF3006B070BD87
S31524003E603049606845F007FA064658B901212E48BC
S31524003E7046F08DF931462D4801908288013A17F093
S31524003E809DFEEBE7606805AB04AA01A9FFF7CCFE0B
S31524003E90002815D004DA264809F0C0FD0120DDE704
S31524003EA0019B224A23489B1A234ADB105343DDE90C
S31524003EB00412013346F06BF9DDE904120198DEE7BA
S31524003EC0032DC9D11D49606845F0D5F90546A8B921
S31524003ED001461022A06846F0D9F90128014604D0EB
S31524003EE00121174846F053F9D8E70F4846F04FF911
S31524003EF00E48294601908288013AC0E7A168606885
S31524003F0003AB02AAFFF73EFF002803DA0D4846F06A
S31524003F103EF9C3E7DDE9020188429DD2FFF762FF3D
S31524003F209CE700BF6F4E0524734E0524F0E3062458
S31524003F308B4E0524A54E0524ABAAAAAA4B400524DC
S31524003F40F04E0524CE4E052430B587B005AB00933C
S31524003F50054604AB0846114603AAFFF7F3FD059B65
S31524003F600446B3B1E0B1204607B030BD0399002919
S31524003F701CDB049A914219DC521A0B4401321D743B
S31524003F800B4B0C490C48002D08BF194646F0FFF888
S31524003F90E9E70028E7D1094809F040FD0124E2E7D2
S31524003FA04FF6FF72064B99689142DFD12246E7E726
S31524003FB085880524A6550524898805244D88052445
S31524003FC0F0E30624F0B51E46002389B0022A1746DC
S31524003FD0CDE90433039304DC4FF0FF34204609B0C3
S31524003FE0F0BD4749706845F046F9054630B1454964
S31524003FF0706845F040F90028EED101254249B068A1
S3152400400045F039F90446002863D0B06805AB04AA04
S3152400401003A9FFF709FE00281FD003DA3B4809F05D
S31524004020FDFC2DE0039B3A4A3A489B1A3A4ADB1098
S3152400403053433A490133002D18BF014600933848AB
S31524004040DDE9042346F0A3F8DDE904239A42DEBF22
S31524004050039B9B181D740024C0E7042FBCD131494F
S31524004060B06845F008F90446F0B901461022F06814
S3152400407046F00CF9012805D001212B4846F087F893
S315240040800124ABE7254B23490246002D08BF1946D8
S31524004090264846F07CF84FF6FF721D4B0393996829
S315240040A0914227D12248BAE7F168B06807AB06AA3D
S315240040B0FFF768FE002803DA1E4846F068F8DFE7B3
S315240040C0DDE90612914287D22846FFF73DFF0446D2
S315240040D084E70F4B03939A684FF6FF739A42BAD03C
S315240040E00E4B0C490122002D08BF19460F4846F0F5
S315240040F04EF8039B9A88002AADD01D746EE700BF44
S3152400410090400524A18A05246F4E05248B4E052450
S31524004110F0E30624A6550524ABAAAAAA8588052475
S31524004120736105244B400524F04E0524576105246C
S31524004130A0610524CE4E052410B502780C462A2A01
S315240041404FF000014FF010020ED1013046F09EF8D8
S31524004150022C05D0042C05D0012C11D1007810BDD9
S315240041600088FCE70068FAE746F090F8032CF6D8B6
S315240041704FF0FF31E40001FA04F420EA0400EEE7EC
S315240041800020ECE703782A2B04D1102200210130E9
S3152400419046F07CB8242B10D143787B2B0ED10230E9
S315240041A00246114612F8013B7D2B03D100230B70E6
S315240041B005F076BB002BF4D11846704700207047D3
S315240041C02DE9F04D06468A4690461F4645F07CF872
S315240041D08346354D5A463046296845F057F80446F5
S315240041E0002857D1286845F06FF8834552D16E6868
S315240041F057BB5046FFF7C6FF05464046FFF7C2FFAA
S315240042000146284645F037F8052E07D8DFE806F09C
S3152400421003090D0F1419B0FA80F464092046BDE889
S31524004220F08D041E18BF0124F8E7C40FF6E7002812
S31524004230D4BF00240124F1E70028CCBF00240124A4
S31524004240ECE7C443E40FE9E739465046FFF774FF29
S31524004250394605464046FFF76FFF052EDED8DFE8D0
S3152400426006F003070B1012142B1A5C425C41D5E7A7
S315240042702C1A18BF0124D1E78542ACBF002401249F
S31524004280CCE78542D4E78542D7E78542B4BF0024EC
S315240042900124C3E7054B08359D429BD1314604488A
S315240042A045F075FF0024B9E7D4E604243CE704244A
S315240042B08D230524042A10B511461C461BD11868E3
S315240042C00DF02EF90228034608DC002808DC023308
S315240042D00FD00A4809F0A2FB002006E00428F8D1F2
S315240042E0E2686168A068FFF76BFFB0FA80F04009C6
S315240042F010BD0023F4E74FF0FF30F9E7BD51052444
S315240043000022034B1A60034B1A68034B1A6070474A
S3152400431004BE0624DCBD0624F4BD0624064B1A6816
S31524004320064B1A60064B1A68064B1A60064B1A6827
S31524004330064B1A60704700BFECBD0624F0BD062468
S3152400434004BE062408BE0624F4BD0624F8BD0624AD
S31524004350064B1A68064B1A60064B1A68064B1A60F7
S31524004360064B1A68064B1A60704700BFF0BD062438
S31524004370ECBD062408BE062404BE0624F8BD062485
S31524004380F4BD062408B509F06BFB18B1BDE8084056
S3152400439009F086BB4FF0FF3008BD0000044B1B68B4
S315240043A023B9044A1368591C11601870704700BF5A
S315240043B004BE0624F4BD06240020064A12F8013B56
S315240043C02BB9C0F38113184400F03F0070471844FA
S315240043D0F4E700BFC5BD062438B5094B094D1C6852
S315240043E0002C04DC084C14F8010B28B938BD2878B5
S315240043F009F025FB013CF3E709F021FBF3E700BFB5
S31524004400E4BD0624E1BD0624C4BD06242DE9F04DF1
S3152400441000254FF0FF342E46ADF5487DDFF818B160
S3152400442002900DF58C784FF40177C24609F038FBDB
S31524004430DBF80020C0B21AB1039009F000FB039800
S315240044400A285FD05CDC00286BD0032869D008F8E2
S31524004450010BD9F874205168384A914267D1013F3B
S31524004460E4D188F8007050E0032810DC90B1059F51
S31524004470029B1F44384608F0ABFD049AD0B1394656
S3152400448006A808F0BBFDC8B108F010FE49E00738BD
S3152400449002281ED9DBF80030002BC2D16422013554
S315240044A095FBF2F302FB1353002BBAD12E2009F00D
S315240044B0C6FAB6E7384606A9FDF792F9049BBC422C
S315240044C003F1FF3328BF3C461F44BE4238BF3E4655
S315240044D0E0E7751C2D1B42F2107045F031F82B468F
S315240044E0324621461648009545F051FE2946204677
S315240044F0FDF7AEFC2946134805F096F8059812E018
S315240045000D28A4D1002288F80020A8EB0A03002B4A
S3152400451007DB504606AB05AA04A90DF0B7F8002818
S31524004520A2DA4FF0FF300DF5487DBDE8F08D09F095
S31524004530C5FA002893D0F4E73C8E0624A1DA002499
S31524004540279305248C93052438B51C4815461C4608
S3152400455005F0A6F920B10078A0F13102504250416D
S31524004560174B022D18601FD160681022002145F0D8
S31524004570D6FE0446134845F00AFE2046FFF746FFBA
S315240045806424054609F06CFA08B109F089FA4FF457
S315240045907A7044F0D5FF013CF4D16B1C06D10A484D
S315240045A045F0F5FD012038BD0024E3E729460748F8
S315240045B045F0EDFD064B20461D60F4E769520524BF
S315240045C03C8E06247452052498520524B65205249A
S315240045D0C09D06242DE9F041ADF5826D0291064673
S315240045E0694601A80DF0F0F90446002840D0009849
S315240045F00DF0BEFB01461F4845F0C9FD00241FE00F
S3152400460007EB0608404608F0E3FC2C442A462F44D0
S3152400461050B1414604A808F0F1FC48B108F046FD23
S315240046200DF5826DBDE8F081404604A9FDF7D8F862
S315240046306A464FF4806104A80DF07CFA051EDFDC7F
S3152400464068460DF041FB00200B490DF05DFB04F19B
S315240046501F01304621F01F01FDF7FAFB21462246B1
S31524004660064845F094FD2146054804F0DDFFD7E7CA
S315240046700746DDE7DCA3052485430024959305241A
S315240046808C9305242DE9F04DB14886B014461D4679
S3152400469005F006F9002857D01022002145F0F6FD32
S315240046A00646012CD9F8088050DD102200216868BE
S315240046B045F0ECFD032C064648D10A220021A868C1
S315240046C045F0E4FD0746002840D0804513D0014636
S315240046D0A04845F05CFD4CF2503044F031FFC9F857
S315240046E0087024F05FFD4CF2503044F029FF09F0A5
S315240046F0D7F90D28FBD19849286844F0BCFD044617
S3152400470030BB31463A46954845F041FD02213046B4
S31524004710FFF760FFB84513D04146914845F037FD71
S315240047204CF2503044F00CFFC9F8088024F03AFDCE
S315240047304CF2503044F004FF09F0B2F91B28FBD1A7
S31524004740204606B0BDE8F08D864EAAE74746D2E756
S315240047508549286844F08FFD3A460446314620B9F7
S31524004760824845F014FD0121D1E7814845F00FFD2B
S31524004770804B814A1E60814B00211A60804B814AFE
S31524004780DFF804A21A600D22804B814C1A70232272
S31524004790804B1960804B1970804B1A70804B1960BE
S315240047A0FFF7AEFDFFF7BAFD4FF0FF3302910493F6
S315240047B07C4BCAF8003009F073F9012803D003288A
S315240047C0F9D10025A8E109F06BF910F0E00F834632
S315240047D063D009F065F910F0E00F5ED0C5B2A5F1FB
S315240047E0200303939DF80C30049A029393426CD1D0
S315240047F0FFF7AEFD09F054F910F0E00F4DD05FFA43
S315240048008BFB5D44ABF1200BC3B25FFA8BF00193B3
S315240048101D44A0F1020B48BB09F042F910F0E00F49
S3152400482083463AD009F03CF910F0E00F059034D0D5
S3152400483009F036F910F0E00F2FD0059B5FFA8BFBB9
S31524004840DBB25D441D44C5F381122A4402F03F02C3
S31524004850C0B22032904220D15F22ABF1200B203B04
S315240048605FFA8BFBDBB202FB0B3B0544BBF1010F6A
S3152400487030DC09F015F910F0E00F0ED0C5F38113E2
S315240048801D4405F03F05C0B22035A84205D109F0E4
S3152400489007F9C0B20D2800F08980FFF759FD0123DE
S315240048A0237023236370029B00212033A3704E239D
S315240048B02171E370FFF780FD344B20301B78207183
S315240048C06371A171FFF788FD72E7FFF727FD029B4D
S315240048D004938FE709F0E4F8034613F0E00FC0B21F
S315240048E0DBD0019B0544442B0BF1FF3B20D12C4B01
S315240048F01B689BB1224B00F06002402A1B6806D13C
S3152400490000F0BF0098470023254A1360AEE700F065
S315240049107F023F2A08BF40F04000F3E71F4B1B7875
S31524004920834201D10123EFE7154B1B6898479DE786
S31524004930019B532B9AD1DAF800301B491A4602F808
S31524004940010B8A4238BF1346CAF800308EE700BFEF
S31524004950D4520524DD5205240F530524155305246A
S31524004960FD530524000040D0545305245A530524EE
S3152400497099530524DCBD06240143002400BE0624E5
S31524004980FCBD06249D43002420BE0624E0BD062447
S31524004990C4BD0624E4BD0624E1BD0624E8BD0624E0
S315240049A0ECBD06240CBE062420BE0624039A019BD5
S315240049B02032532B6C4DD2B240F0938000236B49A6
S315240049C028700B606A490B7023216A4B1970DAF838
S315240049D0003069498B42A1F1130104BF01F112038E
S315240049E0CAF80030DAF800305B1A002B65DD7E2029
S315240049F0012B207163D02120022B607161D088782D
S31524004A00DFF868C12038C0B2CCF800002020032B80
S31524004A10A07158D0C97801F06000402846D101F031
S31524004A20BF015348042B01704FF04001E1714CD073
S31524004A305248052B0179A1F1200129704FF02D014F
S31524004A40217244D04B494079062B08704FF023013C
S31524004A5061723ED04E21072BA1723CD03120082B07
S31524004A60E0723AD0092B217339D022236373202391
S31524004A70A3737E231021E37323740123237001F18E
S31524004A802003637059234FF0000BE3704B1C04F88A
S31524004A9003B0A2700193FFF78FFC019B2030E054F2
S31524004AA02B7821448B7081F803B00BE701F07F004B
S31524004AB03F2808BF41F04001B3E70321DDE7042185
S31524004AC0DBE70521D9E70621D7E70721D5E7082122
S31524004AD0D3E70921D1E70A21CFE70B21CDE70C2122
S31524004AE0CBE7012323702323002163705923A2706B
S31524004AF0E3702171FFF760FC2B78203063712071FD
S31524004B00A171FFF769FC019B422B7FF451AE1C4B2C
S31524004B101D681C4B19686D1A642408F0A1FF08B19E
S31524004B2008F0BEFF4FF47A7044F00AFD013CF4D13C
S31524004B3029463046FDF78CF92A462946124845F07F
S31524004B4026FB2946114804F06FFD731C104D05D130
S31524004B5010482C6045F01BFB0124DBE531460E484A
S31524004B6045F015FB2E60D5E5E0BD0624E4BD0624FC
S31524004B70E1BD0624E8BD06241FBE06240CBE062479
S31524004B80F4BD0624DCBD0624959305248C930524C4
S31524004B90C09D0624D8530524B6520524012A2DE99E
S31524004BA0F34D92469B463BDDDFF8808011F00106EB
S31524004BB0D8F800701AD01E4B1D681E4B1C68102393
S31524004BC093FBF4F329462846009322463B4643F0BA
S31524004BD0FBFB002007FB04F6154B35441D60154BE3
S31524004BE0C8F800701C6002B0BDE8F08D0421186876
S31524004BF00CF096FC041E16DB10223146DBF804006A
S31524004C0045F044FB0C4BBAF1020F1D680544D6D07F
S31524004C1010223146DBF8080045F038FB0746CEE77C
S31524004C204FF0FF30DFE70120DDE700BF408E06248A
S31524004C3028BE06242CBE062424BE0624012A10B52A
S31524004C40064C05DD10220021586845F01FFB206024
S31524004C502168034845F09BFA002010BD24BE062493
S31524004C608B540524022A07B50CDD0433013A01933B
S31524004C7000920B4602460021044805F077F803B05B
S31524004C805DF804FB4FF0FF30F9E700BF33550524E8
S31524004C902DE9F04D1C46002386B0CDE904334FF0B0
S31524004CA05043012A029303F1F8731546039307DC54
S31524004CB0DDE902128A422AD2454845F068FA21E003
S31524004CC01021606802AA45F009FB00281ADB022D90
S31524004CD0EED01021A06803AA45F000FB002811DBC2
S31524004CE0032DE5D01021E06805AA45F0F7FA00283F
S31524004CF008DB042DDCD01021206904AA45F0EEFA45
S31524004D000028D5DA4FF0FF3006B0BDE8F08D002636
S31524004D103446304845F03BFA029F049B53B1B342D4
S31524004D2008D8224631462C4845F031FA201E18BFB1
S31524004D300120E9E708F0C2FE002843D106F1010A62
S31524004D405146264845F023FADDE902B5F207059CCB
S31524004D5020D5002CA8BFE4434FF0FF38B8BF6442E7
S31524004D601F4A21461F4845F012FA22463B46A5EB28
S31524004D700B0525F003053D449D420ED81A4808F03C
S31524004D804DFE3E4623460024B5420AD8631C19D05C
S31524004D905646C2E74FF00108E2E743F8042B4244A3
S31524004DA0EAE732689A420AD0F11B59440F48019324
S31524004DB045F0EDF908F082FE0134019B10B9434415
S31524004DC00436E1E70A2008F03AFE01209CE700BFFA
S31524004DD03955052454550524E45505246E550524D2
S31524004DE0A65505247E550524A7550524B255052424
S31524004DF02DE9F0411E46D31E012B90462DD80421C1
S31524004E0030680CF08DFB051E2ADD10220021706807
S31524004E1045F03CFA134B10221C6800210444B06868
S31524004E2045F034FAB8F1040F07460AD110220021BE
S31524004E30F06845F02BFA2346013804D20020BDE859
S31524004E40F0810120F7E7042D02D11F602B44F3E7FC
S31524004E50022D0CBF1F801F70F8E74FF0FF30EEE7DE
S31524004E600120ECE724BE0624022A70B51E4637DD4F
S31524004E70042118680CF054FB051E34DB1022002193
S31524004E80706845F003FA102204460021B06845F004
S31524004E90FDF9012809D1042D01D12368FDE7022D4E
S31524004EA001D12388FDE72378FDE7042D07D1234686
S31524004EB00246002AFBD053F8041B013AF9E7022DD7
S31524004EC006D0204423468342FCD013F8012BFAE76C
S31524004ED023460246002AFBD033F8021B013AF9E79F
S31524004EE04FF0FF3070BD0120FCE700002DE9F045AE
S31524004EF0042A11461F4687B059D118680CF010FBB6
S31524004F00041E57DB082C28D0042C28D02A4E2B4BE1
S31524004F10022C18BF1E4610220021786845F0B6F9E7
S31524004F20DFF89CA01022DAF800300021C518B868F2
S31524004F3045F0ACF9DAF80030102200EB0308002122
S31524004F40F86845F0A3F900272A46A8EB050CB842D1
S31524004F5002EB0C0105D1002416E01A4EDBE71A4EAB
S31524004F60D9E7042C19D1136809688B421CD0501B2D
S31524004F704044CDE9003604912346039402903146F9
S31524004F80124845F004F9012432463946104845F0C2
S31524004F90FEF8204607B0BDE8F085022C07BF13882B
S31524004FA0098813780978E0E722440137CFE74FF0E0
S31524004FB0FF34EEE70124ECE7A2540524B754052474
S31524004FC024BE0624AB540524B2540524BC5405241B
S31524004FD0EE5405242DE9F74511F00107064614463B
S31524004FE024D02E4B1C682E4B1D682E4FDFF8B8801C
S31524004FF02146384645F0CBF8042DAA4625D121680A
S315240050002A4845F0C4F82A4808F04AFC00283BD030
S315240050100128DFF8A0A01FD19AF800302D2B1BD130
S31524005020002EE5D0C5F1000A5444E1E704211068B6
S315240050300CF076FA051E23DB60681022394645F00B
S3152400504025F91D4B1C680444CFE7022D13BF4046A7
S3152400505021881A482178D4E71022164801A945F058
S3152400506015F9019B534512D0042D04D12060002E3E
S31524005070BED02C44BCE7022D0CBF20802070F6E75E
S31524005080012003B0BDE8F085002EB1D0CCE7034B58
S3152400509000201C60024B1D60F3E700BF30BE0624CF
S315240050A034BE062474990524879905247B990524FE
S315240050B08D99052440C2062424BE062481990524FC
S315240050C0022A03D11A460120FFF784BF4FF0FF308E
S315240050D07047022A03D11A460020FFF77BBF4FF000
S315240050E0FF307047042A2DE9F04D11461C4644D161
S315240050F018680CF015FAB0F100081ADB102200210A
S31524005100606845F0C3F81E4F102200210646A068A9
S31524005110D7F800A045F0BAF8102205460021E06829
S31524005120D7F800B045F0B2F8074620B9154808F07C
S3152400513075FC012418E05D44284607F049FF07FB67
S3152400514008F70446564490B10F4808F067FC3A46DF
S315240051502946304607F052FF044610B107F0A6FF51
S31524005160E7E70A4808F05AFC2046BDE8F08D3A469F
S3152400517031462846FCF734FBF6E74FF0FF34F3E7D5
S3152400518024BE06241055052421550524629E052493
S3152400519037B50D46144601A9102245F077F8C3B257
S315240051A001982B7002782D2A08D101301022002173
S315240051B0019045F06BF8207003B030BD2370FBE7F7
S315240051C073B505460E46144601A9102245F0A7F8E4
S315240051D0019A0346AA42306003D14FF0FF3002B051
S315240051E070BD11782D290AD1501C0190527832B104
S315240051F01022002145F093F820600020EFE7019A61
S3152400520010780028E9D12360E9E700002DE9F04D64
S31524005210012A17461E4698B005DC4FF0FF34204677
S3152400522018B0BDE8F08DA84B11F001041A785B780C
S315240052308DF850208DF85130A44B1B688DF84A30D8
S31524005240A34B1B688DF84B30A24B1B688DF84C3052
S31524005250A14B1B688DF84D30A04B1B68ADF852301E
S315240052609F4B1B8804932FD1706803788DF8503098
S3152400527044F02AF8012892BF214673685978022FF0
S315240052808DF8511020D0B0680DF14B020DF14A0172
S31524005290FFF77EFF032F17D0F0680DF14D0213A9F7
S315240052A0FFF776FF042F06DD10220021306944F033
S315240052B0EDFFADF85200052F06DD1022002170699E
S315240052C044F0E4FF83B204939DF84B301F2B09D995
S315240052D00222844914A843F0D9FF18B1824844F025
S315240052E056FF9AE707F0D2FC9DF850300546692B05
S315240052F065D1022F07BF1F264FF000089DF84A806C
S315240053009DF84B60794FB0451FD900246E4B9DF80C
S3152400531050201A709DF851205A709DF84A206B4BE4
S315240053201A609DF84B206A4B1A609DF84C20694BF5
S315240053301A609DF84D20684B1A60BDF85220674BC1
S315240053401A60674B049A1A6069E70DF14F030093BC
S31524005350414628460DF14E0315AA07F0EFFC48BB3B
S315240053609DF84F30414628460593DDF854A09DF814
S315240053704EB007F011FD41460446284607F08AFD43
S315240053805B4B4146002818BF3B462846069307F048
S3152400539043FD584A584B41462C2808BF13460393CD
S315240053A0069B52460293059B5448009301945B4600
S315240053B044F0EDFE08F101015FFA81F8A3E7722BB0
S315240053C04CD100249DF84A60DFF83481DFF834A1FB
S315240053D09DF84B309DF84C70B34214D296E74FF6A5
S315240053E0FF733A46ADF85230314628460DF1520342
S315240053F007F054FCD8B13A463146434844F0C7FE38
S3152400540001240137FFB29DF84D30BB42E7D29DF807
S315240054104A109DF84B20914206D09DF84C209A4282
S3152400542002D03A4844F0B3FE0136F6B2D0E79DF8EE
S315240054304A209DF84B309A4205D19DF84C209DF880
S315240054404D309A4204D03A463146504644F09FFEA7
S315240054504046BDF8521044F09AFED2E7772B22D16B
S3152400546000249DF84A60DFF8A8809DF84B309DF80B
S315240054704C70B3420ED249E73A463146284607F0E5
S3152400548021FC28B13A463146404644F080FE0124A8
S315240054900137FFB29DF84D20BDF85230BA42EBD207
S315240054A00136F6B2E1E76D2B6DD100249DF84A60F2
S315240054B0DFF860A0DFF860809DF84B309DF84C70D3
S315240054C0B34243D222E700BF54BE062440BE06247C
S315240054D038BE062460BE062458BE062448BE0624CA
S315240054E050BE06248DFC05243D560524CB4B0524AD
S315240054F0375605240D560524115605246A560524C7
S31524005500F9560524E0560524B1560524CEA10524D2
S31524005510FF560524525705244757052400233A46A7
S31524005520ADF854303146284615AB07F0B7FBA0B189
S31524005530A24844F02CFE3146404644F028FE394623
S315240055409F4844F024FE01240137FFB29DF84D30D4
S31524005550BB42E3D20136F6B2AEE7BDF85430049A24
S31524005560049923EA0203BDF8522028460A4013432D
S315240055709BB23A463146ADF8543007F0A3FB0028D7
S31524005580E2D05046D5E702228E4914A843F07EFE87
S315240055900446002840F0FF809DF84C30052B03D8A4
S315240055A09DF84D30052B04D9874844F0F0FD01249D
S315240055B035E601239DF84AA00B939DF84B309DF8C0
S315240055C04C705345FFF4A2AE804E12E015AB3A461A
S315240055D05146284603EB470307F060FB38B13A46A9
S315240055E05146304644F0D3FD002301240B93013762
S315240055F0FFB29DF84D30BB420A93E7D20B9B3BB9D1
S31524005600734844F0C4FD0AF101035FFA83FAD4E730
S315240056104FF0000B9DF84C300C936E4B07936E4B5A
S3152400562006930C9B5B4528D80A9B5B4525D315AB73
S3152400563033F81B60069B3246B3F8008067485B68E4
S31524005640414644F0A4FD664AC6F3002316F4807F3F
S315240056501093644B18BF13461193C6F380130E930D
S31524005660C6F340330F9300230593079B059A9B8823
S315240056709A420FD3564844F08AFD079B0BF1010B3F
S3152400568008330793069BBBF1060F03F10803069321
S31524005690C7D1B5E70C23059A534853430893079B70
S315240056A0089A1B689F18B98809937B88994006EA4B
S315240056B001030D9306EA0102434689B244F067FDCD
S315240056C07888B8F1000F25D106281AD106F401529C
S315240056D0402A14D0454B4649B2F5005F18BF0B4605
S315240056E001930F9B0D22009306210E9B414844F003
S315240056F04EFD374844F04BFD059B0133B4E73E4B42
S31524005700EEE7082831D10146119B109A3B4844F014
S315240057103EFDEEE7099B089AB8F1040F995A11D178
S3152400572018BBBB883340012B0AD0354A3548022B97
S3152400573018BF024600920022334844F028FDD8E7D9
S31524005740324AF7E7B8F1050F0FD170B9BB88334059
S31524005750012B08D02A4A2B48022B18BF0246009256
S315240057602B480022E9E7294AF9E7089A099B995A1E
S315240057707A8891420BD1274844F009FD79880D9BFC
S31524005780BA680B411946244844F001FDB1E7234881
S3152400579044F0FDFCF2E70222214914A843F076FDE9
S315240057A0044600287FF439AD022F02D107F09CFA73
S315240057B0ACE5B06807F012FAA8E500BF2C5705241B
S315240057C0D55605246B5705246E570524B156052452
S315240057D0CEA1052408E10424C0E70424B2570524F5
S315240057E0DC570524E1570524E657052415560524D8
S315240057F047020624F95705246FF70524285805245B
S3152400580024560524395605244458052419560524B6
S315240058106358052485580524945805248C58052452
S315240058208DFC05242DE9F04D012A0D4617461C460C
S3152400583098B002F1FF3B04DC4FF0FF3018B0BDE80E
S31524005840F08D5B6893F800809C4B1B680A939C4BF5
S315240058501B680B939B4B1B680E939B4B1B680F93E8
S315240058609A4B1B680C939A4B1B680D93994B1B8878
S31524005870049307F0DDF9EB0748BF974B06466068AB
S3152400588048BF93F8008043F01FFD01281ED96368A2
S315240058905B78782B1AD1A06807F0D0F90546002842
S315240058A0CAD0836BCDE90A334368066853B19A6A32
S315240058B012B9B8F1770F05D05B6A002B53D1B8F132
S315240058C0720F53D1854808F0A9F8B5E7002503954A
S315240058D0B8F1720F4CD1BBF1010F5ADD5F4607F1C7
S315240058E0FF3B54F827702E21384643F0F5FC8246B8
S315240058F0002800F08180C21B394610A8059243F087
S315240059008BFC0021059A10A802F160030DEB03021B
S3152400591002F8201C0FAA0EA9FFF752FC00288BD1EF
S315240059200AF1010738460DAA0CA9FFF749FC0028FD
S3152400593082D1BBF1010F6BDDABF10203012B3FF6E4
S315240059407BAFBBF1030FA0685BD107F09DF8064639
S3152400595000283FF471AFE0680BAA0AA9FFF730FCD0
S31524005960002855D068E701230393B1E70123039365
S31524005970B8F1770FDDD1BBF1010F0ADD102200212A
S3152400598054F82B0044F082FC023F83B2012F049387
S31524005990A5DC06F10807384607F020F9DDE90A43B5
S315240059A005930E9BB8F1720F06930F9B079360D055
S315240059B0B8F1770F07D1A2460C9B08930D9B099348
S315240059C0059B534552DA444B0A9A83F800803B4B95
S315240059D01A603B4B0B9A1A603A4B0E9A1A603A4B52
S315240059E00F9A1A60394B0C9A1A60394B0D9A1A6021
S315240059F0384B049A1A6010E04FF0FF33CDE90E338A
S31524005A0090E707F01BF950B1836BCDE90A3306689A
S31524005A10B8F16C0FBDD107F0A5F800200EE7A068F9
S31524005A200BAA0AA99AE7039BABB9049B5A4600938F
S31524005A30514623463046376BB8470028C3D1013434
S31524005A40099BA342EFDA0BF1010B079B5B450BDAAB
S31524005A500AF1010AB4E7049B68680093876A23461F
S31524005A605A4651462846E7E7089CE9E7DDF818B088
S31524005A70EBE70C9B394608930D9B1948099344F090
S31524005A8086FB059BA3429EDB2146164844F07FFBFA
S31524005A90DDF818B0079B5B4543DA0134F1E7039B35
S31524005AA023BB53465A4621463046F76AB847002850
S31524005AB0074622DA0C4844F06AFB84E744BE0624EF
S31524005AC03CBE06246CBE062468BE062464BE062498
S31524005AD05CBE06244CBE062456BE06242D5405243C
S31524005AE05354052468540524928705246A6853462A
S31524005AF0576A21465A462846D8E7BBF1000F03DBEE
S31524005B005946094844F043FB51460848BAB244F082
S31524005B103EFB0AF1010A099B5345C0DA0BF1010B3E
S31524005B20B8E7DDF820A0F6E77C5405248054052444
S31524005B30F8B5002014461E4643F0ABFC022C05465D
S31524005B4002D04FF0FF30F8BD0A220021706844F0DD
S31524005B509DFB4FF47A742E214443706843F0A7FBCF
S31524005B60034640B1642100230A27061D10F8012F9D
S31524005B700AB1B04207D11C44284643F08AFCA0420D
S31524005B800ED30020DFE7303A5FFA82FCBCF1090F1E
S31524005B9004D801FB0233B1FBF7F1E7E70023EAE778
S31524005BA007F08CFF0028CCD1642043F0C9FCE3E73E
S31524005BB0022A10B51C4620D11249586843F05BFBD3
S31524005BC018B943F066FC104B186060680F4943F01F
S31524005BD052FB0446A0B90C4B186843F05AFC4FF408
S31524005BE07A725043B0FBF2F0B0FBF2F102FB1102E1
S31524005BF0074844F0CCFA204610BD4FF0FF34FAE7AC
S31524005C000024F8E75340052470BE0624B2A10524D7
S31524005C10576405242DE9F04D1E46144680460F464A
S31524005C200A22194956F8040F0BF0B2F9013C05462D
S31524005C3020B34368A34221DB012F03D18268134B8F
S31524005C409A421ED1DFF848A0DAF80030002B06DA93
S31524005C5012F046FA00280BDD0023CAF80030ED685E
S31524005C603346224639464046AC46BDE8F04D6047A9
S31524005C70084807F0D3FE0120BDE8F08D4FF0FF3031
S31524005C80FAE70020F8E700BF448E062455150124C0
S31524005C905C8F0624DB5C0524022A70B527D11022EA
S31524005CA00021586844F0F2FA124E0446306812F085
S31524005CB0FFF9054630B931680F4844F068FA0124E3
S31524005CC0204670BDA1B212F039F90C4B041E0C49C2
S31524005CD00C4818BF194644F05AFA002CF0D1EC604F
S31524005CE0284611F091FC041E18BF0124E8E74FF062
S31524005CF0FF34E5E75C8F0624395B0524335B0524F2
S31524005D00225B0524535B052470B506460D4612F026
S31524005D10CFF9044628B931460C4844F038FA2046CF
S31524005D2070BD12F081F900B10DB10023E360204665
S31524005D3011F06AFC38B9204612F0DAF9D0E90001EC
S31524005D4010F0E4FDEBE70024E9E700BF395B052406
S31524005D5008B5044B01211868FFF7D6FFB0FA80F086
S31524005D60400908BD5C8F06242DE9F04D90B0002132
S31524005D70019205A82C221E46FBF7E2FCBB4B002110
S31524005D801868FFF7C1FF0290002800F0B481019B38
S31524005D90002B00F3A2814FF0FF34204610B0BDE85B
S31524005DA0F08DB34956F8240043F065FAA5008346DE
S31524005DB0002859D1019B0146013404350C2205A83B
S31524005DC0A3EB04083544FBF7BBFCD84501DC5C4453
S31524005DD0D8E0A84955F82B0043F04DFA4FEA8B0733
S31524005DE0014605EB8B0AA0B90BF102029045D2DDE0
S31524005DF00A220390DAF8040044F048FA0A220590AD
S31524005E000399DAF8080044F041FA0BF1030B0690E3
S31524005E10DBE7994955F82B0043F02DFA0028D6D113
S31524005E200BF101029045B6DD9DF81C20043742F0A3
S31524005E3001029249E8598DF81C2043F01CFA40B916
S31524005E409DF81C2042F002028DF81C200BF1020B57
S31524005E50BBE78B49E85943F00EFA00289BD19DF8FD
S31524005E601C2060F34102EFE70222864956F82400FB
S31524005E7043F00CFA834600287BD1705943F024FA68
S31524005E80032876D173599878A0F1310A5FFA8AF3F8
S31524005E90032B6ED8631C0393039A019B3038A3EB20
S31524005EA0020810ABC40003EBC00008225946283868
S31524005EB0FBF746FC0435B8F1010F06EB05077FF71F
S31524005EC06AAF59460A22705944F0E0F94FF0010BA3
S31524005ED004F140030DEB030444F8280C654957F8F4
S31524005EE02B004FEA8B0543F0C6F980B910AA0AF1B4
S31524005EF0010302EBC30313F8242C0BF1010B42F02C
S31524005F00010203F8242CC345E8DB039C5FE75A49C6
S31524005F1057F82B0043F0AFF90028F6D10BF1010313
S31524005F2098457FF738AF10AA0AF1010302EBC304A0
S31524005F3014F8242C043542F002025049785904F806
S31524005F40242C43F098F940B914F8242C42F0040286
S31524005F5004F8242C0BF1020BD5E74949785943F070
S31524005F608AF900287FF417AF14F8242C60F38202F0
S31524005F70EEE74549705943F07EF9002840F09A80AF
S31524005F8001340090019B9C42FFF60BAF3F4807F07B
S31524005F9045FD069B002B00F0A3803D4807F03EFDFF
S31524005FA005993C4A4802C90D42F08EF93A4807F051
S31524005FB035FD0699374A4802C90D42F085F99DF800
S31524005FC01C30D90708D513F0020F2D4B2B49334823
S31524005FD008BF194644F0DBF80DF1140A002556468D
S31524005FE02F4FDFF8C0802C46DAF80C3001342546D2
S31524005FF02146002B78D0404644F0C9F810AB03EB79
S31524006000C40313F8243CDAF80C1013F0010F214BC7
S31524006010254A4FEA412008BF1A46C90D42F054F9D1
S3152400602010AB03EBC40414F8243C9A0709D513F0E7
S31524006030040F134B114A294608BF1A461B4844F03D
S31524006040A6F8042D0AF1080ACDD13146009A029801
S3152400605011F084F8044600284AD1009B022B7FF4D1
S315240060609CAE134807F0DAFC97E600BF5C8F062443
S31524006070AA590524AF590524B3590524A18A052410
S3152400608090400524B959052427900524BC59052494
S31524006090D6590524CEA10524ED590524205A0524D4
S315240060A0585A0524475A0524A45905246C5A05240C
S315240060B0895A05241149705943F0DDF818B901238A
S315240060C0013400935EE70E49705943F0D4F8002852
S315240060D07FF461AE02230134F3E701240023F0E7C1
S315240060E0084807F09BFC6AE7384644F050F897E7DF
S315240060F0054807F093FC01244FE600BF14900524BD
S3152400610060D80524035A0524C15A052408B50A2053
S3152400611012F018F8002008BD012AF8B51D4623D12F
S31524006120274B1C68002601212046FFF7EDFD074674
S31524006130002836D032462146062010F011FA214B8B
S31524006140051E214A314618BF1A46204844F01FF836
S315240061503DBB1B4B1C6097F86530FF2B24D1214691
S315240061601B4844F014F81DE0022A06D10A22002115
S31524006170586844F08BF80446D4E7032A1DD10A2232
S315240061800021586844F082F80A2204460021A868AF
S3152400619044F07CF807280646C5DD07210D4843F060
S315240061A0F6FF01252846F8BD384611F0A1FF214601
S315240061B0C27A094843F0EBFFF4E74FF0FF35F1E7E5
S315240061C05C8F0624335B0524BA580524E458052439
S315240061D002590524BD5805241B5905242DE9F34DE0
S315240061E0894C2368002B06DA11F07AFF002840F345
S315240061F085800023236020680021FFF785FD04465F
S3152400620000287ED003688148196843F0C0FF94F8BB
S3152400621053107F4843F0BBFF216D7E48C1F30F2105
S3152400622043F0B5FF626D94F85010D3B20193C2F3D4
S31524006230072300937848C2F30743120E43F0A7FFBF
S31524006240E169764843F0A3FFD4F8F80010F0F6FC91
S315240062500146734843F09BFF616A724811F0FAF8CD
S31524006260A16A714811F0F6F8216F704843F08FFF48
S315240062706F4D60686F49C0F3072331EA200128BFB8
S315240062802946C0F307426C4843F081FF217911B1B6
S315240062906A4843F07CFF6A4843F079FF694B6A4AAF
S315240062A021696A48002914BF1146194643F06FFF35
S315240062B0674807F0B3FBD4E92401614A42F004F8A5
S315240062C0644BD4F8E410644A6448002908BF1A468B
S315240062D0A16943F05CFF624807F0A0FBA16F584A0E
S315240062E04802C90D41F0F0FF62685E4B13445E4AD2
S315240062F0934208D9002002B0BDE8F08D5B4807F030
S315240063008DFB0120F7E794F86250594815F00205F1
S315240063100EBF2E4694F8636006F0010607F07EFB56
S31524006320E16F474A4802C90D41F0CEFF514807F0B4
S3152400633075FBD4E92601474B4F4A002E08BF1A465F
S3152400634041F0C2FF94F86430DA0753D54B4807F07E
S3152400635065FB7EB14A4807F061FBD4E93401384A2B
S3152400636041F0B2FF474807F059FBD4E93601344AD5
S3152400637041F0AAFF444807F051FBD4E92801304AEA
S31524006380424EDFF80CA1002D08BF1646324641F0D6
S315240063909BFF404807F042FBD4E92A01324641F0EC
S315240063A093FF0026DFF8D0B004F1B00801362DB3F0
S315240063B094F86370374107F00107D8E900231343A3
S315240063C008F1080813D03146504643F0E0FE58E958
S315240063D00201204A002F18BF5A4641F075FF94F84F
S315240063E064303341DB070BD5244807F017FB042E12
S315240063F0DCD17FE70A2007F022FBAAE72F46DCE759
S315240064000A2007F01CFBF2E75C8F0624B75B052401
S31524006410C35B0524D85B0524E15B0524F45B0524D2
S31524006420035C05240E5C0524205C0524325C0524CB
S3152400643000F605249DA40524445C0524515C05240A
S31524006440CEA10524AA5B0524A65B0524555C052458
S31524006450D05C0524A6550524AD5B0524685C05247B
S315240064607D5C0524FFFBFBBFFEFBFB3FDB5C0524B9
S31524006470905C0524A35C0524B25B0524B35C052447
S31524006480D7590524EE590524BB5C0524A4590524B3
S31524006490485A0524CB5C052410B50B4C00212068F2
S315240064A0FFF732FC70B10620216810F04CF830B1A9
S315240064B0037BFF2B03D00BF063FD002010BD0348A4
S315240064C007F0ACFA0120F9E75C8F0624CA5A0524A2
S315240064D0032AF8B51C4638D158681022002143F007
S315240064E0D5FE102200210746A06843F0CFFE194CA2
S315240064F0054600212068FFF707FC064640B32168BD
S315240065002B463A46144843F042FE304611F080FDAD
S315240065100128044604D1114843F039FE2046F8BD2B
S31524006520304611F0E5FD2A46394610F078F804463F
S315240065300B4B0C4A0146854218BF1A460A4843F0BB
S3152400654026FE2C1B18BF0124E8E74FF0FF34E5E7AD
S315240065500124E3E75C8F06243D5905246D5905245F
S31524006560335B0524BA5805248E590524042A2DE9BB
S31524006570F0411C4640D158681022002143F086FE83
S31524006580102200218046A06843F080FE10220021BC
S315240065900746E06843F07AFE1A4C05460021206837
S315240065A0FFF7B2FB064650B321682B463A461648F7
S315240065B043F0EDFD304611F02BFD0128044605D1AC
S315240065C0124843F0E4FD2046BDE8F081304611F040
S315240065D08FFD43462A46394610F003F804460C4BF1
S315240065E00C4A0146854218BF1A460B4843F0CFFD94
S315240065F02C1B18BF0124E6E74FF0FF34E3E7012400
S31524006600E1E700BF5C8F06245F5B05246D590524F2
S31524006610335B0524BA5805248F5B0524042A2DE907
S31524006620F0411C4638D158681022002143F02EFE32
S31524006630102200210746A06843F028FE10220021DC
S315240066400546E06843F022FEDFF858800446002120
S31524006650D8F80000FFF758FB064600B32A4623461F
S31524006660D8F80010104843F092FD304611F040FD52
S3152400667029463B4622460FF07FFF05460B4B0C4A24
S315240066800146844218BF1A460A4843F080FD601B1F
S3152400669018BF0120BDE8F0814FF0FF30FAE7012052
S315240066A0F8E700BF5C8F0624DF5A0524335B0524F4
S315240066B0BA5805240E5B05241FB5069C8DE81C00DC
S315240066C00B1D421E062102480AF06AFD04B010BDC5
S315240066D0FC9206242DE9F34D06460F4690460024E7
S315240066E0DFF864B0DFF864A0C51DA74202D802B063
S315240066F0BDE8F08D584608EB040143F048FD3319F4
S3152400670019785046CDE9003343F041FD009A019BA8
S31524006710AA4203F10103F3D10D4843F038FD2B4679
S3152400672005F1080213F8011F50460192009343F025
S315240067302EFD009B019A9342F4D1064843F027FD8F
S3152400674010341035D1E700BF489A0524519A052400
S31524006750C59E0524CEA105242DE9F04505460E4601
S31524006760D0F8E840164FDFF85C8085B0E03C04F1B1
S31524006770E00305F1E80293421FD105B0BDE8F08598
S31524006780384643F004FD0AF1010AB245F8DBD4E9A0
S315240067903623A16B0291D4E90210511843EB000071
S315240067A0CDE90010404643F0F2FC2046711CFFF769
S315240067B0D3FFD4F8E040E03CD9E74FF0000AE4E701
S315240067C04F9A05246F9C052438B5054614F0D8F94C
S315240067D0284613F025FF044610B110F5805F04D92E
S315240067E022462946024843F0D2FC204638BD00BF43
S315240067F0478A0524F0B585B014F0C2F9434843F01E
S31524006800C6FC002013F09CFE00250446404E414F52
S315240068103CB9002D77D1404843F0B9FC012005B09E
S31524006820F0BDD4F8D430002B58D13046A16B43F0B8
S31524006830AEFCD4F8CC308BB15968384843F0A7FC69
S31524006840D4F8CC303648DB69596843F0A0FCD4F838
S31524006850CC3034481B68196843F099FC384643F019
S3152400686096FC2378013B072B4BD8DFE803F0043E44
S3152400687040424A4446482C4843F089FC21692B4827
S3152400688043F085FC61692A4843F081FCE16931B112
